:100000000C947A000C9499000C9499000C9499002B
:100010000C9499000C9499000C9499000C949900FC
:100020000C9499000C9499000C9499000C949900EC
:100030000C9499000C9499000C9499000C949900DC
:100040000C9499000C9499000C94EC000C94990079
:100050000C9499000C9499000C9499000C949900BC
:100060000C9499000C9499000C9499000C949900AC
:100070000C9499000C9499000C9499000C9499009C
:100080000C9499000C9499000C9499000C9499008C
:100090000C9499000C9499000C9499000C9499007C
:1000A0000C9499000C9499000C9499000C9499006C
:1000B0000C9499000C9499000C9499000C9499005C
:1000C0000C9499000C9499000C9499000C9499004C
:1000D0000C9499000C9499000C9499000C9499003C
:1000E0000C9499000C9499000C9499000C9499002C
:1000F0000C94990011241FBECFEFCDBFDFE7DEBF08
:1001000010E4A0E0B0E4E6EBF3E000E00BBF02C0D7
:1001100007900D92AC31B107D9F720E4ACE1B0E41F
:1001200001C01D92A832B207E1F70E9470010C9441
:10013000D9010C940000E0E2F4E084E0828382893B
:100140008860828B089588E0809321040895E0E21E
:10015000F4E0948188E0892784830895E0E0F4E066
:1001600084E0818388E0818383879CE09487E0E05A
:10017000F9E0808380818D7F80838FE0868308957E
:10018000880F80930C090895CF93C82F0E94AE006A
:10019000CC0FE0E0F9E0C4878185816081878185AB
:1001A000806881878185806481878185806281877D
:1001B00081E083877894CF91089580932040909335
:1001C0002140089580931E4090931F40089580938E
:1001D0001C4090931D4008951F920F920FB60F92EE
:1001E00011240BB60F922F933F934F935F936F930E
:1001F0007F938F939F93AF93BF93EF93FF938091E0
:100200000B09882304F580910B0981FD0AC08091B8
:100210000D09E0912040F0912140309769F0099557
:100220000BC0E0911E40F0911F40309711F00995EE
:1002300001C080E080930D09E0E0F9E082858287CB
:1002400082858360828780910B0980FF1BC080912B
:100250000B0980FF08C0E0E0F9E082858287828593
:10026000836082870FC0E0911C40F0911D40309761
:1002700009F00995E0E0F9E0828584608287828553
:1002800082608287FF91EF91BF91AF919F918F9193
:100290007F916F915F914F913F912F910F900BBE86
:1002A0000F900FBE0F901F901895E0E2F4E081E0F0
:1002B000818382E08283E0E6F8E083E896E080874D
:1002C00091878681806C868308959091640895FF5C
:1002D000FCCF8093620808950E94650180E0089534
:1002E0000E9455010E949B000E94A30080E090E4C0
:1002F000809324409093254084E00E94970184E0FD
:100300000E94A6018EE090E40E94A9010E94A7002D
:100310002FE788E391E0215080409040E1F700C052
:100320000000F0CF089580E090E0089508950E94C5
:10033000C40082E991E00E94DD0083E991E00E941F
:10034000E20086E991E00E94E70008950E94C00063
:1003500008950F931F93CF93DF93E0912440F09182
:100360002540238121FF1BC08C01D0E0C0E0F801B3
:1003700081918F016091244070912540DB01189696
:10038000ED91FC911997882331F00995892B79F328
:10039000DFEFCFEFECCF8AE00995892B19F08FEFD3
:1003A0009FEF02C08D2F9C2FDF91CF911F910F9156
:0603B0000895F894FFCF50
:1003B60000000002000000006C010000000048651B
:0C03C6006C6C6F2C20776F726C6421004F
:00000001FF
